{
  "contractName": "ParameterizerFactory",
  "abi": [
    {
      "constant": true,
      "inputs": [],
      "name": "plcrFactory",
      "outputs": [
        {
          "name": "",
          "type": "address"
        }
      ],
      "payable": false,
      "stateMutability": "view",
      "type": "function"
    },
    {
      "constant": true,
      "inputs": [],
      "name": "proxyFactory",
      "outputs": [
        {
          "name": "",
          "type": "address"
        }
      ],
      "payable": false,
      "stateMutability": "view",
      "type": "function"
    },
    {
      "constant": true,
      "inputs": [],
      "name": "canonizedParameterizer",
      "outputs": [
        {
          "name": "",
          "type": "address"
        }
      ],
      "payable": false,
      "stateMutability": "view",
      "type": "function"
    },
    {
      "inputs": [
        {
          "name": "_plcrFactory",
          "type": "address"
        }
      ],
      "payable": false,
      "stateMutability": "nonpayable",
      "type": "constructor"
    },
    {
      "anonymous": false,
      "inputs": [
        {
          "indexed": false,
          "name": "creator",
          "type": "address"
        },
        {
          "indexed": false,
          "name": "token",
          "type": "address"
        },
        {
          "indexed": false,
          "name": "plcr",
          "type": "address"
        },
        {
          "indexed": false,
          "name": "parameterizer",
          "type": "address"
        }
      ],
      "name": "NewParameterizer",
      "type": "event"
    },
    {
      "constant": false,
      "inputs": [
        {
          "name": "_token",
          "type": "address"
        },
        {
          "name": "_parameters",
          "type": "uint256[]"
        }
      ],
      "name": "newParameterizerBYOToken",
      "outputs": [
        {
          "name": "",
          "type": "address"
        }
      ],
      "payable": false,
      "stateMutability": "nonpayable",
      "type": "function"
    },
    {
      "constant": false,
      "inputs": [
        {
          "name": "_supply",
          "type": "uint256"
        },
        {
          "name": "_name",
          "type": "string"
        },
        {
          "name": "_decimals",
          "type": "uint8"
        },
        {
          "name": "_symbol",
          "type": "string"
        },
        {
          "name": "_parameters",
          "type": "uint256[]"
        }
      ],
      "name": "newParameterizerWithToken",
      "outputs": [
        {
          "name": "",
          "type": "address"
        }
      ],
      "payable": false,
      "stateMutability": "nonpayable",
      "type": "function"
    }
  ],
  "bytecode": "0x608060405234801561001057600080fd5b50604051602080614c6383398101806040528101908080519060200190929190505050806000806101000a81548173ffffffffffffffffffffffffffffffffffffffff021916908373ffffffffffffffffffffffffffffffffffffffff1602179055506000809054906101000a900473ffffffffffffffffffffffffffffffffffffffff1673ffffffffffffffffffffffffffffffffffffffff1663c10f1a756040518163ffffffff167c0100000000000000000000000000000000000000000000000000000000028152600401602060405180830381600087803b1580156100f857600080fd5b505af115801561010c573d6000803e3d6000fd5b505050506040513d602081101561012257600080fd5b8101908080519060200190929190505050600160006101000a81548173ffffffffffffffffffffffffffffffffffffffff021916908373ffffffffffffffffffffffffffffffffffffffff16021790555061017b6101de565b604051809103906000f080158015610197573d6000803e3d6000fd5b50600260006101000a81548173ffffffffffffffffffffffffffffffffffffffff021916908373ffffffffffffffffffffffffffffffffffffffff160217905550506101ee565b604051613b328061113183390190565b610f34806101fd6000396000f30060806040526004361061006d576000357c0100000000000000000000000000000000000000000000000000000000900463ffffffff1680631f4d7ec4146100725780637087ec14146101bb578063ad3eb71f14610281578063c10f1a75146102d8578063c34fb5ca1461032f575b600080fd5b34801561007e57600080fd5b5061017960048036038101908080359060200190929190803590602001908201803590602001908080601f0160208091040260200160405190810160405280939291908181526020018383808284378201915050505050509192919290803560ff169060200190929190803590602001908201803590602001908080601f016020809104026020016040519081016040528093929190818152602001838380828437820191505050505050919291929080359060200190820180359060200190808060200260200160405190810160405280939291908181526020018383602002808284378201915050505050509192919290505050610386565b604051808273ffffffffffffffffffffffffffffffffffffffff1673ffffffffffffffffffffffffffffffffffffffff16815260200191505060405180910390f35b3480156101c757600080fd5b5061023f600480360381019080803573ffffffffffffffffffffffffffffffffffffffff16906020019092919080359060200190820180359060200190808060200260200160405190810160405280939291908181526020018383602002808284378201915050505050509192919290505050610a2f565b604051808273ffffffffffffffffffffffffffffffffffffffff1673ffffffffffffffffffffffffffffffffffffffff16815260200191505060405180910390f35b34801561028d57600080fd5b50610296610e97565b604051808273ffffffffffffffffffffffffffffffffffffffff1673ffffffffffffffffffffffffffffffffffffffff16815260200191505060405180910390f35b3480156102e457600080fd5b506102ed610ebc565b604051808273ffffffffffffffffffffffffffffffffffffffff1673ffffffffffffffffffffffffffffffffffffffff16815260200191505060405180910390f35b34801561033b57600080fd5b50610344610ee2565b604051808273ffffffffffffffffffffffffffffffffffffffff1673ffffffffffffffffffffffffffffffffffffffff16815260200191505060405180910390f35b6000806000806000809054906101000a900473ffffffffffffffffffffffffffffffffffffffff1673ffffffffffffffffffffffffffffffffffffffff1663bf6c4de98a8a8a8a6040518563ffffffff167c010000000000000000000000000000000000000000000000000000000002815260040180858152602001806020018460ff1660ff16815260200180602001838103835286818151815260200191508051906020019080838360005b8381101561044e578082015181840152602081019050610433565b50505050905090810190601f16801561047b5780820380516001836020036101000a031916815260200191505b50838103825284818151815260200191508051906020019080838360005b838110156104b4578082015181840152602081019050610499565b50505050905090810190601f1680156104e15780820380516001836020036101000a031916815260200191505b509650505050505050602060405180830381600087803b15801561050457600080fd5b505af1158015610518573d6000803e3d6000fd5b505050506040513d602081101561052e57600080fd5b810190808051906020019092919050505092508273ffffffffffffffffffffffffffffffffffffffff1663fc0c546a6040518163ffffffff167c0100000000000000000000000000000000000000000000000000000000028152600401602060405180830381600087803b1580156105a557600080fd5b505af11580156105b9573d6000803e3d6000fd5b505050506040513d60208110156105cf57600080fd5b810190808051906020019092919050505091508173ffffffffffffffffffffffffffffffffffffffff1663a9059cbb338b6040518363ffffffff167c0100000000000000000000000000000000000000000000000000000000028152600401808373ffffffffffffffffffffffffffffffffffffffff1673ffffffffffffffffffffffffffffffffffffffff16815260200182815260200192505050602060405180830381600087803b15801561068557600080fd5b505af1158015610699573d6000803e3d6000fd5b505050506040513d60208110156106af57600080fd5b810190808051906020019092919050505050600160009054906101000a900473ffffffffffffffffffffffffffffffffffffffff1673ffffffffffffffffffffffffffffffffffffffff166361b69abd600260009054906101000a900473ffffffffffffffffffffffffffffffffffffffff166040518263ffffffff167c0100000000000000000000000000000000000000000000000000000000028152600401808273ffffffffffffffffffffffffffffffffffffffff1673ffffffffffffffffffffffffffffffffffffffff1681526020018060200182810382526000815260200160200192505050602060405180830381600087803b1580156107b457600080fd5b505af11580156107c8573d6000803e3d6000fd5b505050506040513d60208110156107de57600080fd5b810190808051906020019092919050505090508073ffffffffffffffffffffffffffffffffffffffff166344b776808385886040518463ffffffff167c0100000000000000000000000000000000000000000000000000000000028152600401808473ffffffffffffffffffffffffffffffffffffffff1673ffffffffffffffffffffffffffffffffffffffff1681526020018373ffffffffffffffffffffffffffffffffffffffff1673ffffffffffffffffffffffffffffffffffffffff16815260200180602001828103825283818151815260200191508051906020019060200280838360005b838110156108e25780820151818401526020810190506108c7565b50505050905001945050505050600060405180830381600087803b15801561090957600080fd5b505af115801561091d573d6000803e3d6000fd5b505050507ff4a0eaa30ff3ec1d59441beedaa51ca40523fa3157d309772749e14cfa9f934633838584604051808573ffffffffffffffffffffffffffffffffffffffff1673ffffffffffffffffffffffffffffffffffffffff1681526020018473ffffffffffffffffffffffffffffffffffffffff1673ffffffffffffffffffffffffffffffffffffffff1681526020018373ffffffffffffffffffffffffffffffffffffffff1673ffffffffffffffffffffffffffffffffffffffff1681526020018273ffffffffffffffffffffffffffffffffffffffff1673ffffffffffffffffffffffffffffffffffffffff16815260200194505050505060405180910390a180935050505095945050505050565b60008060008060009054906101000a900473ffffffffffffffffffffffffffffffffffffffff1673ffffffffffffffffffffffffffffffffffffffff1663d5b8169c866040518263ffffffff167c0100000000000000000000000000000000000000000000000000000000028152600401808273ffffffffffffffffffffffffffffffffffffffff1673ffffffffffffffffffffffffffffffffffffffff168152602001915050602060405180830381600087803b158015610af057600080fd5b505af1158015610b04573d6000803e3d6000fd5b505050506040513d6020811015610b1a57600080fd5b81019080805190602001909291905050509150600160009054906101000a900473ffffffffffffffffffffffffffffffffffffffff1673ffffffffffffffffffffffffffffffffffffffff166361b69abd600260009054906101000a900473ffffffffffffffffffffffffffffffffffffffff166040518263ffffffff167c0100000000000000000000000000000000000000000000000000000000028152600401808273ffffffffffffffffffffffffffffffffffffffff1673ffffffffffffffffffffffffffffffffffffffff1681526020018060200182810382526000815260200160200192505050602060405180830381600087803b158015610c2057600080fd5b505af1158015610c34573d6000803e3d6000fd5b505050506040513d6020811015610c4a57600080fd5b810190808051906020019092919050505090508073ffffffffffffffffffffffffffffffffffffffff166344b776808684876040518463ffffffff167c0100000000000000000000000000000000000000000000000000000000028152600401808473ffffffffffffffffffffffffffffffffffffffff1673ffffffffffffffffffffffffffffffffffffffff1681526020018373ffffffffffffffffffffffffffffffffffffffff1673ffffffffffffffffffffffffffffffffffffffff16815260200180602001828103825283818151815260200191508051906020019060200280838360005b83811015610d4e578082015181840152602081019050610d33565b50505050905001945050505050600060405180830381600087803b158015610d7557600080fd5b505af1158015610d89573d6000803e3d6000fd5b505050507ff4a0eaa30ff3ec1d59441beedaa51ca40523fa3157d309772749e14cfa9f934633868484604051808573ffffffffffffffffffffffffffffffffffffffff1673ffffffffffffffffffffffffffffffffffffffff1681526020018473ffffffffffffffffffffffffffffffffffffffff1673ffffffffffffffffffffffffffffffffffffffff1681526020018373ffffffffffffffffffffffffffffffffffffffff1673ffffffffffffffffffffffffffffffffffffffff1681526020018273ffffffffffffffffffffffffffffffffffffffff1673ffffffffffffffffffffffffffffffffffffffff16815260200194505050505060405180910390a1809250505092915050565b6000809054906101000a900473ffffffffffffffffffffffffffffffffffffffff1681565b600160009054906101000a900473ffffffffffffffffffffffffffffffffffffffff1681565b600260009054906101000a900473ffffffffffffffffffffffffffffffffffffffff16815600a165627a7a72305820c4ee2b668ff4cc33516f307b804959139fa4a950a1cbfdb8f16610c06731b8830029608060405262093a8060055534801561001757600080fd5b50613b0b806100276000396000f300608060405260043610610106576000357c0100000000000000000000000000000000000000000000000000000000900463ffffffff16806229514f1461010b57806330490e911461013657806332ed5b1214610167578063353009901461026757806344b77680146102b057806350411552146103565780635f02116f14610397578063693ec85e1461044057806377609a41146104bd5780638240ae4b1461050657806386bb8f371461054b5780638f1d377614610582578063a5ba3b1e1461060f578063a7aad3db14610674578063bade1c54146106df578063c51131fb1461076e578063dc6ab527146107b7578063fc0c546a146107fc578063fce1ccca14610853575b600080fd5b34801561011757600080fd5b506101206108aa565b6040518082815260200191505060405180910390f35b34801561014257600080fd5b5061016560048036038101908080356000191690602001909291905050506108b0565b005b34801561017357600080fd5b506101966004803603810190808035600019169060200190929190505050611019565b60405180888152602001878152602001868152602001806020018573ffffffffffffffffffffffffffffffffffffffff1673ffffffffffffffffffffffffffffffffffffffff168152602001848152602001838152602001828103825286818151815260200191508051906020019080838360005b8381101561022657808201518184015260208101905061020b565b50505050905090810190601f1680156102535780820380516001836020036101000a031916815260200191505b509850505050505050505060405180910390f35b34801561027357600080fd5b506102966004803603810190808035600019169060200190929190505050611113565b604051808215151515815260200191505060405180910390f35b3480156102bc57600080fd5b50610354600480360381019080803573ffffffffffffffffffffffffffffffffffffffff169060200190929190803573ffffffffffffffffffffffffffffffffffffffff1690602001909291908035906020019082018035906020019080806020026020016040519081016040528093929190818152602001838360200280828437820191505050505050919291929050505061113d565b005b34801561036257600080fd5b50610381600480360381019080803590602001909291905050506116ac565b6040518082815260200191505060405180910390f35b3480156103a357600080fd5b5061043e60048036038101908080359060200190820180359060200190808060200260200160405190810160405280939291908181526020018383602002808284378201915050505050509192919290803590602001908201803590602001908080602002602001604051908101604052809392919081815260200183836020028082843782019150505050505091929192905050506117dc565b005b34801561044c57600080fd5b506104a7600480360381019080803590602001908201803590602001908080601f0160208091040260200160405190810160405280939291908181526020018383808284378201915050505050509192919290505050611846565b6040518082815260200191505060405180910390f35b3480156104c957600080fd5b506104ec60048036038101908080356000191690602001909291905050506118cc565b604051808215151515815260200191505060405180910390f35b34801561051257600080fd5b506105356004803603810190808035600019169060200190929190505050611be2565b6040518082815260200191505060405180910390f35b34801561055757600080fd5b50610580600480360381019080803590602001909291908035906020019092919050505061231b565b005b34801561058e57600080fd5b506105ad600480360381019080803590602001909291905050506126f1565b604051808681526020018573ffffffffffffffffffffffffffffffffffffffff1673ffffffffffffffffffffffffffffffffffffffff168152602001841515151581526020018381526020018281526020019550505050505060405180910390f35b34801561061b57600080fd5b5061065a60048036038101908080359060200190929190803573ffffffffffffffffffffffffffffffffffffffff169060200190929190505050612754565b604051808215151515815260200191505060405180910390f35b34801561068057600080fd5b506106c9600480360381019080803573ffffffffffffffffffffffffffffffffffffffff16906020019092919080359060200190929190803590602001909291905050506127bf565b6040518082815260200191505060405180910390f35b3480156106eb57600080fd5b50610750600480360381019080803590602001908201803590602001908080601f01602080910402602001604051908101604052809392919081815260200183838082843782019150505050505091929192908035906020019092919050505061291b565b60405180826000191660001916815260200191505060405180910390f35b34801561077a57600080fd5b5061079d6004803603810190808035600019169060200190929190505050612fec565b604051808215151515815260200191505060405180910390f35b3480156107c357600080fd5b506107e66004803603810190808035600019169060200190929190505050613177565b6040518082815260200191505060405180910390f35b34801561080857600080fd5b5061081161318f565b604051808273ffffffffffffffffffffffffffffffffffffffff1673ffffffffffffffffffffffffffffffffffffffff16815260200191505060405180910390f35b34801561085f57600080fd5b506108686131b5565b604051808273ffffffffffffffffffffffffffffffffffffffff1673ffffffffffffffffffffffffffffffffffffffff16815260200191505060405180910390f35b60055481565b600080600060026000856000191660001916815260200190815260200160002092508260040160009054906101000a900473ffffffffffffffffffffffffffffffffffffffff1691508260020154905061090984612fec565b15610c12576109b8836003018054600181600116156101000203166002900480601f0160208091040260200160405190810160405280929190818152602001828054600181600116156101000203166002900480156109a95780601f1061097e576101008083540402835291602001916109a9565b820191906000526020600020905b81548152906001019060200180831161098c57829003601f168201915b505050505084600601546131db565b83600019167f37f3986c71e1aa2c470cfc4a92af70820610c3065589d35ef1664ea27f3e73a58460030185600601546040518080602001838152602001828103825284818154600181600116156101000203166002900481526020019150805460018160011615610100020316600290048015610a765780601f10610a4b57610100808354040283529160200191610a76565b820191906000526020600020905b815481529060010190602001808311610a5957829003601f168201915b5050935050505060405180910390a260026000856000191660001916815260200190815260200160002060008082016000905560018201600090556002820160009055600382016000610ac99190613956565b6004820160006101000a81549073ffffffffffffffffffffffffffffffffffffffff0219169055600582016000905560068201600090555050600360009054906101000a900473ffffffffffffffffffffffffffffffffffffffff1673ffffffffffffffffffffffffffffffffffffffff1663a9059cbb83836040518363ffffffff167c0100000000000000000000000000000000000000000000000000000000028152600401808373ffffffffffffffffffffffffffffffffffffffff1673ffffffffffffffffffffffffffffffffffffffff16815260200182815260200192505050602060405180830381600087803b158015610bc757600080fd5b505af1158015610bdb573d6000803e3d6000fd5b505050506040513d6020811015610bf157600080fd5b81019080805190602001909291905050501515610c0d57600080fd5b610dff565b610c1b846118cc565b15610c2e57610c2984613260565b610dfe565b8260050154421115610df85783600019167f29026cb2acebe6d0a4b6d593ccadf76e3fc6d0a02254e078b0c4a619608089d760405160405180910390a260026000856000191660001916815260200190815260200160002060008082016000905560018201600090556002820160009055600382016000610caf9190613956565b6004820160006101000a81549073ffffffffffffffffffffffffffffffffffffffff0219169055600582016000905560068201600090555050600360009054906101000a900473ffffffffffffffffffffffffffffffffffffffff1673ffffffffffffffffffffffffffffffffffffffff1663a9059cbb83836040518363ffffffff167c0100000000000000000000000000000000000000000000000000000000028152600401808373ffffffffffffffffffffffffffffffffffffffff1673ffffffffffffffffffffffffffffffffffffffff16815260200182815260200192505050602060405180830381600087803b158015610dad57600080fd5b505af1158015610dc1573d6000803e3d6000fd5b505050506040513d6020811015610dd757600080fd5b81019080805190602001909291905050501515610df357600080fd5b610dfd565b600080fd5b5b5b6064610e3f6040805190810160405280600f81526020017f64697370656e736174696f6e5063740000000000000000000000000000000000815250611846565b11151515610e4957fe5b6064610e896040805190810160405280601081526020017f7044697370656e736174696f6e50637400000000000000000000000000000000815250611846565b11151515610e9357fe5b610f95600554610f87610eda6040805190810160405280600f81526020017f7052657665616c53746167654c656e0000000000000000000000000000000000815250611846565b610f79610f1b6040805190810160405280600f81526020017f70436f6d6d697453746167654c656e0000000000000000000000000000000000815250611846565b610f6b610f5c6040805190810160405280600e81526020017f704170706c7953746167654c656e000000000000000000000000000000000000815250611846565b426138d190919063ffffffff16565b6138d190919063ffffffff16565b6138d190919063ffffffff16565b6138d190919063ffffffff16565b5060026000856000191660001916815260200190815260200160002060008082016000905560018201600090556002820160009055600382016000610fda9190613956565b6004820160006101000a81549073ffffffffffffffffffffffffffffffffffffffff021916905560058201600090556006820160009055505050505050565b6002602052806000526040600020600091509050806000015490806001015490806002015490806003018054600181600116156101000203166002900480601f0160208091040260200160405190810160405280929190818152602001828054600181600116156101000203166002900480156110d75780601f106110ac576101008083540402835291602001916110d7565b820191906000526020600020905b8154815290600101906020018083116110ba57829003601f168201915b5050505050908060040160009054906101000a900473ffffffffffffffffffffffffffffffffffffffff16908060050154908060060154905087565b60008060026000846000191660001916815260200190815260200160002060050154119050919050565b60008373ffffffffffffffffffffffffffffffffffffffff161415801561119c57506000600360009054906101000a900473ffffffffffffffffffffffffffffffffffffffff1673ffffffffffffffffffffffffffffffffffffffff16145b15156111a757600080fd5b60008273ffffffffffffffffffffffffffffffffffffffff161415801561120657506000600460009054906101000a900473ffffffffffffffffffffffffffffffffffffffff1673ffffffffffffffffffffffffffffffffffffffff16145b151561121157600080fd5b82600360006101000a81548173ffffffffffffffffffffffffffffffffffffffff021916908373ffffffffffffffffffffffffffffffffffffffff16021790555081600460006101000a81548173ffffffffffffffffffffffffffffffffffffffff021916908373ffffffffffffffffffffffffffffffffffffffff1602179055506112ea6040805190810160405280600a81526020017f6d696e4465706f736974000000000000000000000000000000000000000000008152508260008151811015156112db57fe5b906020019060200201516131db565b6113416040805190810160405280600b81526020017f704d696e4465706f73697400000000000000000000000000000000000000000081525082600181518110151561133257fe5b906020019060200201516131db565b6113986040805190810160405280600d81526020017f6170706c7953746167654c656e0000000000000000000000000000000000000081525082600281518110151561138957fe5b906020019060200201516131db565b6113ef6040805190810160405280600e81526020017f704170706c7953746167654c656e0000000000000000000000000000000000008152508260038151811015156113e057fe5b906020019060200201516131db565b6114466040805190810160405280600e81526020017f636f6d6d697453746167654c656e00000000000000000000000000000000000081525082600481518110151561143757fe5b906020019060200201516131db565b61149d6040805190810160405280600f81526020017f70436f6d6d697453746167654c656e000000000000000000000000000000000081525082600581518110151561148e57fe5b906020019060200201516131db565b6114f46040805190810160405280600e81526020017f72657665616c53746167654c656e0000000000000000000000000000000000008152508260068151811015156114e557fe5b906020019060200201516131db565b61154b6040805190810160405280600f81526020017f7052657665616c53746167654c656e000000000000000000000000000000000081525082600781518110151561153c57fe5b906020019060200201516131db565b6115a26040805190810160405280600f81526020017f64697370656e736174696f6e506374000000000000000000000000000000000081525082600881518110151561159357fe5b906020019060200201516131db565b6115f96040805190810160405280601081526020017f7044697370656e736174696f6e506374000000000000000000000000000000008152508260098151811015156115ea57fe5b906020019060200201516131db565b6116506040805190810160405280600a81526020017f766f746551756f72756d0000000000000000000000000000000000000000000081525082600a81518110151561164157fe5b906020019060200201516131db565b6116a76040805190810160405280600b81526020017f70566f746551756f72756d00000000000000000000000000000000000000000081525082600b81518110151561169857fe5b906020019060200201516131db565b505050565b600080600460009054906101000a900473ffffffffffffffffffffffffffffffffffffffff1673ffffffffffffffffffffffffffffffffffffffff1663053e71a6846040518263ffffffff167c010000000000000000000000000000000000000000000000000000000002815260040180828152602001915050602060405180830381600087803b15801561174057600080fd5b505af1158015611754573d6000803e3d6000fd5b505050506040513d602081101561176a57600080fd5b810190808051906020019092919050505014156117a257600160008381526020019081526020016000206002015460020290506117d7565b600160008381526020019081526020016000206000015460016000848152602001908152602001600020600201546002020390505b919050565b6000815183511415156117ee57600080fd5b600090505b825181101561184157611834838281518110151561180d57fe5b90602001906020020151838381518110151561182557fe5b9060200190602002015161231b565b80806001019150506117f3565b505050565b6000806000836040518082805190602001908083835b602083101515611881578051825260208201915060208101905060208303925061185c565b6001836020036101000a038019825116818451168082178552505050505050905001915050604051809103902060001916600019168152602001908152602001600020549050919050565b60006118d661399e565b6118de6139f2565b60026000856000191660001916815260200190815260200160002060e06040519081016040529081600082015481526020016001820154815260200160028201548152602001600382018054600181600116156101000203166002900480601f0160208091040260200160405190810160405280929190818152602001828054600181600116156101000203166002900480156119bc5780601f10611991576101008083540402835291602001916119bc565b820191906000526020600020905b81548152906001019060200180831161199f57829003601f168201915b505050505081526020016004820160009054906101000a900473ffffffffffffffffffffffffffffffffffffffff1673ffffffffffffffffffffffffffffffffffffffff1673ffffffffffffffffffffffffffffffffffffffff168152602001600582015481526020016006820154815250509150600160008360200151815260200190815260200160002060a06040519081016040529081600082015481526020016001820160009054906101000a900473ffffffffffffffffffffffffffffffffffffffff1673ffffffffffffffffffffffffffffffffffffffff1673ffffffffffffffffffffffffffffffffffffffff1681526020016001820160149054906101000a900460ff1615151515815260200160028201548152602001600382015481525050905060008260200151118015611b0157506000151581604001511515145b8015611bd95750600460009054906101000a900473ffffffffffffffffffffffffffffffffffffffff1673ffffffffffffffffffffffffffffffffffffffff1663ee68483083602001516040518263ffffffff167c010000000000000000000000000000000000000000000000000000000002815260040180828152602001915050602060405180830381600087803b158015611b9d57600080fd5b505af1158015611bb1573d6000803e3d6000fd5b505050506040513d6020811015611bc757600080fd5b81019080805190602001909291905050505b92505050919050565b6000611bec61399e565b60008060008060026000886000191660001916815260200190815260200160002060e06040519081016040529081600082015481526020016001820154815260200160028201548152602001600382018054600181600116156101000203166002900480601f016020809104026020016040519081016040528092919081815260200182805460018160011615610100020316600290048015611cd05780601f10611ca557610100808354040283529160200191611cd0565b820191906000526020600020905b815481529060010190602001808311611cb357829003601f168201915b505050505081526020016004820160009054906101000a900473ffffffffffffffffffffffffffffffffffffffff1673ffffffffffffffffffffffffffffffffffffffff1673ffffffffffffffffffffffffffffffffffffffff16815260200160058201548152602001600682015481525050945084604001519350611d5587611113565b8015611d65575060008560200151145b1515611d7057600080fd5b600460009054906101000a900473ffffffffffffffffffffffffffffffffffffffff1673ffffffffffffffffffffffffffffffffffffffff166332ed3d60611dec6040805190810160405280600b81526020017f70566f746551756f72756d000000000000000000000000000000000000000000815250611846565b611e2a6040805190810160405280600f81526020017f70436f6d6d697453746167654c656e0000000000000000000000000000000000815250611846565b611e686040805190810160405280600f81526020017f7052657665616c53746167654c656e0000000000000000000000000000000000815250611846565b6040518463ffffffff167c0100000000000000000000000000000000000000000000000000000000028152600401808481526020018381526020018281526020019350505050602060405180830381600087803b158015611ec857600080fd5b505af1158015611edc573d6000803e3d6000fd5b505050506040513d6020811015611ef257600080fd5b8101908080519060200190929190505050925060a060405190810160405280611f7e6064611f7088611f626064611f5d6040805190810160405280601081526020017f7044697370656e736174696f6e50637400000000000000000000000000000000815250611846565b6138ef565b61390890919063ffffffff16565b61393b90919063ffffffff16565b81526020013373ffffffffffffffffffffffffffffffffffffffff1681526020016000151581526020018581526020016000815250600160008581526020019081526020016000206000820151816000015560208201518160010160006101000a81548173ffffffffffffffffffffffffffffffffffffffff021916908373ffffffffffffffffffffffffffffffffffffffff16021790555060408201518160010160146101000a81548160ff02191690831515021790555060608201518160020155608082015181600301559050508260026000896000191660001916815260200190815260200160002060010181905550600360009054906101000a900473ffffffffffffffffffffffffffffffffffffffff1673ffffffffffffffffffffffffffffffffffffffff166323b872dd3330876040518463ffffffff167c0100000000000000000000000000000000000000000000000000000000028152600401808473ffffffffffffffffffffffffffffffffffffffff1673ffffffffffffffffffffffffffffffffffffffff1681526020018373ffffffffffffffffffffffffffffffffffffffff1673ffffffffffffffffffffffffffffffffffffffff1681526020018281526020019350505050602060405180830381600087803b15801561216a57600080fd5b505af115801561217e573d6000803e3d6000fd5b505050506040513d602081101561219457600080fd5b810190808051906020019092919050505015156121b057600080fd5b600460009054906101000a900473ffffffffffffffffffffffffffffffffffffffff1673ffffffffffffffffffffffffffffffffffffffff16636148fed5846040518263ffffffff167c01000000000000000000000000000000000000000000000000000000000281526004018082815260200191505060a060405180830381600087803b15801561224157600080fd5b505af1158015612255573d6000803e3d6000fd5b505050506040513d60a081101561226b57600080fd5b810190808051906020019092919080519060200190929190805190602001909291908051906020019092919080519060200190929190505050505050915091503373ffffffffffffffffffffffffffffffffffffffff1687600019167fe94e3086c4bfe84acba4437b85a80fca3721dfc419d1f7afe4fa4e470e670b4885858560405180848152602001838152602001828152602001935050505060405180910390a38295505050505050919050565b600080600015156001600086815260200190815260200160002060040160003373ffffffffffffffffffffffffffffffffffffffff1673ffffffffffffffffffffffffffffffffffffffff16815260200190815260200160002060009054906101000a900460ff16151514151561239157600080fd5b600115156001600086815260200190815260200160002060010160149054906101000a900460ff1615151415156123c757600080fd5b600460009054906101000a900473ffffffffffffffffffffffffffffffffffffffff1673ffffffffffffffffffffffffffffffffffffffff1663b43bd0693386866040518463ffffffff167c0100000000000000000000000000000000000000000000000000000000028152600401808473ffffffffffffffffffffffffffffffffffffffff1673ffffffffffffffffffffffffffffffffffffffff1681526020018381526020018281526020019350505050602060405180830381600087803b15801561249457600080fd5b505af11580156124a8573d6000803e3d6000fd5b505050506040513d60208110156124be57600080fd5b810190808051906020019092919050505091506124dc3385856127bf565b9050816001600086815260200190815260200160002060030160008282540392505081905550806001600086815260200190815260200160002060000160008282540392505081905550600180600086815260200190815260200160002060040160003373ffffffffffffffffffffffffffffffffffffffff1673ffffffffffffffffffffffffffffffffffffffff16815260200190815260200160002060006101000a81548160ff0219169083151502179055503373ffffffffffffffffffffffffffffffffffffffff16847f6f4c982acc31b0af2cf1dc1556f21c0325d893782d65e83c68a5534a33f59957836040518082815260200191505060405180910390a3600360009054906101000a900473ffffffffffffffffffffffffffffffffffffffff1673ffffffffffffffffffffffffffffffffffffffff1663a9059cbb33836040518363ffffffff167c0100000000000000000000000000000000000000000000000000000000028152600401808373ffffffffffffffffffffffffffffffffffffffff1673ffffffffffffffffffffffffffffffffffffffff16815260200182815260200192505050602060405180830381600087803b1580156126a557600080fd5b505af11580156126b9573d6000803e3d6000fd5b505050506040513d60208110156126cf57600080fd5b810190808051906020019092919050505015156126eb57600080fd5b50505050565b60016020528060005260406000206000915090508060000154908060010160009054906101000a900473ffffffffffffffffffffffffffffffffffffffff16908060010160149054906101000a900460ff16908060020154908060030154905085565b60006001600084815260200190815260200160002060040160008373ffffffffffffffffffffffffffffffffffffffff1673ffffffffffffffffffffffffffffffffffffffff16815260200190815260200160002060009054906101000a900460ff16905092915050565b6000806000806001600087815260200190815260200160002060030154925060016000878152602001908152602001600020600001549150600460009054906101000a900473ffffffffffffffffffffffffffffffffffffffff1673ffffffffffffffffffffffffffffffffffffffff1663b43bd0698888886040518463ffffffff167c0100000000000000000000000000000000000000000000000000000000028152600401808473ffffffffffffffffffffffffffffffffffffffff1673ffffffffffffffffffffffffffffffffffffffff1681526020018381526020018281526020019350505050602060405180830381600087803b1580156128c457600080fd5b505af11580156128d8573d6000803e3d6000fd5b505050506040513d60208110156128ee57600080fd5b810190808051906020019092919050505090508282820281151561290e57fe5b0493505050509392505050565b600080600061295e6040805190810160405280600b81526020017f704d696e4465706f736974000000000000000000000000000000000000000000815250611846565b915084846040518083805190602001908083835b6020831015156129975780518252602082019150602081019050602083039250612972565b6001836020036101000a038019825116818451168082178552505050505050905001828152602001925050506040518091039020905060405180807f64697370656e736174696f6e5063740000000000000000000000000000000000815250600f019050604051809103902060001916856040518082805190602001908083835b602083101515612a3d5780518252602082019150602081019050602083039250612a18565b6001836020036101000a0380198251168184511680821785525050505050509050019150506040518091039020600019161480612b18575060405180807f7044697370656e736174696f6e506374000000000000000000000000000000008152506010019050604051809103902060001916856040518082805190602001908083835b602083101515612ae55780518252602082019150602081019050602083039250612ac0565b6001836020036101000a038019825116818451168082178552505050505050905001915050604051809103902060001916145b15612b2e5760648411151515612b2d57600080fd5b5b612b3781611113565b151515612b4357600080fd5b83612b4d86611846565b14151515612b5a57600080fd5b60e060405190810160405280612bb6612ba76040805190810160405280600e81526020017f704170706c7953746167654c656e000000000000000000000000000000000000815250611846565b426138d190919063ffffffff16565b8152602001600081526020018381526020018681526020013373ffffffffffffffffffffffffffffffffffffffff168152602001612cec600554612cde612c316040805190810160405280600f81526020017f7052657665616c53746167654c656e0000000000000000000000000000000000815250611846565b612cd0612c726040805190810160405280600f81526020017f70436f6d6d697453746167654c656e0000000000000000000000000000000000815250611846565b612cc2612cb36040805190810160405280600e81526020017f704170706c7953746167654c656e000000000000000000000000000000000000815250611846565b426138d190919063ffffffff16565b6138d190919063ffffffff16565b6138d190919063ffffffff16565b6138d190919063ffffffff16565b8152602001858152506002600083600019166000191681526020019081526020016000206000820151816000015560208201518160010155604082015181600201556060820151816003019080519060200190612d4a929190613a3a565b5060808201518160040160006101000a81548173ffffffffffffffffffffffffffffffffffffffff021916908373ffffffffffffffffffffffffffffffffffffffff16021790555060a0820151816005015560c08201518160060155905050600360009054906101000a900473ffffffffffffffffffffffffffffffffffffffff1673ffffffffffffffffffffffffffffffffffffffff166323b872dd3330856040518463ffffffff167c0100000000000000000000000000000000000000000000000000000000028152600401808473ffffffffffffffffffffffffffffffffffffffff1673ffffffffffffffffffffffffffffffffffffffff1681526020018373ffffffffffffffffffffffffffffffffffffffff1673ffffffffffffffffffffffffffffffffffffffff1681526020018281526020019350505050602060405180830381600087803b158015612ea257600080fd5b505af1158015612eb6573d6000803e3d6000fd5b505050506040513d6020811015612ecc57600080fd5b81019080805190602001909291905050501515612ee857600080fd5b3373ffffffffffffffffffffffffffffffffffffffff167fb25bdef16105f099e5c185f9c7fd969571e8e0caa3f7bd75409512fe0a41a60b868684866002600088600019166000191681526020019081526020016000206000015460405180806020018681526020018560001916600019168152602001848152602001838152602001828103825287818151815260200191508051906020019080838360005b83811015612fa3578082015181840152602081019050612f88565b50505050905090810190601f168015612fd05780820380516001836020036101000a031916815260200191505b50965050505050505060405180910390a2809250505092915050565b6000612ff661399e565b60026000846000191660001916815260200190815260200160002060e06040519081016040529081600082015481526020016001820154815260200160028201548152602001600382018054600181600116156101000203166002900480601f0160208091040260200160405190810160405280929190818152602001828054600181600116156101000203166002900480156130d45780601f106130a9576101008083540402835291602001916130d4565b820191906000526020600020905b8154815290600101906020018083116130b757829003601f168201915b505050505081526020016004820160009054906101000a900473ffffffffffffffffffffffffffffffffffffffff1673ffffffffffffffffffffffffffffffffffffffff1673ffffffffffffffffffffffffffffffffffffffff16815260200160058201548152602001600682015481525050905080600001514211801561315f57508060a0015142105b801561316f575060008160200151145b915050919050565b60006020528060005260406000206000915090505481565b600360009054906101000a900473ffffffffffffffffffffffffffffffffffffffff1681565b600460009054906101000a900473ffffffffffffffffffffffffffffffffffffffff1681565b80600080846040518082805190602001908083835b60208310151561321557805182526020820191506020810190506020830392506131f0565b6001836020036101000a038019825116818451168082178552505050505050905001915050604051809103902060001916600019168152602001908152602001600020819055505050565b61326861399e565b60008060026000856000191660001916815260200190815260200160002060e06040519081016040529081600082015481526020016001820154815260200160028201548152602001600382018054600181600116156101000203166002900480601f0160208091040260200160405190810160405280929190818152602001828054600181600116156101000203166002900480156133495780601f1061331e57610100808354040283529160200191613349565b820191906000526020600020905b81548152906001019060200180831161332c57829003601f168201915b505050505081526020016004820160009054906101000a900473ffffffffffffffffffffffffffffffffffffffff1673ffffffffffffffffffffffffffffffffffffffff1673ffffffffffffffffffffffffffffffffffffffff168152602001600582015481526020016006820154815250509250600160008460200151815260200190815260200160002091506133e483602001516116ac565b9050600460009054906101000a900473ffffffffffffffffffffffffffffffffffffffff1673ffffffffffffffffffffffffffffffffffffffff1663053e71a684602001516040518263ffffffff167c010000000000000000000000000000000000000000000000000000000002815260040180828152602001915050602060405180830381600087803b15801561347b57600080fd5b505af115801561348f573d6000803e3d6000fd5b505050506040513d60208110156134a557600080fd5b8101908080519060200190929190505050826003018190555060018260010160146101000a81548160ff021916908315150217905550600460009054906101000a900473ffffffffffffffffffffffffffffffffffffffff1673ffffffffffffffffffffffffffffffffffffffff16634940318384602001516040518263ffffffff167c010000000000000000000000000000000000000000000000000000000002815260040180828152602001915050602060405180830381600087803b15801561357057600080fd5b505af1158015613584573d6000803e3d6000fd5b505050506040513d602081101561359a57600080fd5b81019080805190602001909291905050501561373457428360a0015111156135cf576135ce83606001518460c001516131db565b5b826020015184600019167fc4497224aa78dd50c9b3e344aab02596201ca1e6dca4057a91a6c02f83f4f6c184600001548560030154604051808381526020018281526020019250505060405180910390a3600360009054906101000a900473ffffffffffffffffffffffffffffffffffffffff1673ffffffffffffffffffffffffffffffffffffffff1663a9059cbb8460800151836040518363ffffffff167c0100000000000000000000000000000000000000000000000000000000028152600401808373ffffffffffffffffffffffffffffffffffffffff1673ffffffffffffffffffffffffffffffffffffffff16815260200182815260200192505050602060405180830381600087803b1580156136e957600080fd5b505af11580156136fd573d6000803e3d6000fd5b505050506040513d602081101561371357600080fd5b8101908080519060200190929190505050151561372f57600080fd5b6138cb565b826020015184600019167f362a12431f779a2baff4f77f75ba7960ae993a5c41b425df11f7fd0af2b9cbe684600001548560030154604051808381526020018281526020019250505060405180910390a3600360009054906101000a900473ffffffffffffffffffffffffffffffffffffffff1673ffffffffffffffffffffffffffffffffffffffff1663a9059cbb600160008660200151815260200190815260200160002060010160009054906101000a900473ffffffffffffffffffffffffffffffffffffffff16836040518363ffffffff167c0100000000000000000000000000000000000000000000000000000000028152600401808373ffffffffffffffffffffffffffffffffffffffff1673ffffffffffffffffffffffffffffffffffffffff16815260200182815260200192505050602060405180830381600087803b15801561388457600080fd5b505af1158015613898573d6000803e3d6000fd5b505050506040513d60208110156138ae57600080fd5b810190808051906020019092919050505015156138ca57600080fd5b5b50505050565b60008082840190508381101515156138e557fe5b8091505092915050565b60008282111515156138fd57fe5b818303905092915050565b60008082840290506000841480613929575082848281151561392657fe5b04145b151561393157fe5b8091505092915050565b600080828481151561394957fe5b0490508091505092915050565b50805460018160011615610100020316600290046000825580601f1061397c575061399b565b601f01602090049060005260206000209081019061399a9190613aba565b5b50565b60e06040519081016040528060008152602001600081526020016000815260200160608152602001600073ffffffffffffffffffffffffffffffffffffffff16815260200160008152602001600081525090565b60a06040519081016040528060008152602001600073ffffffffffffffffffffffffffffffffffffffff16815260200160001515815260200160008152602001600081525090565b828054600181600116156101000203166002900490600052602060002090601f016020900481019282601f10613a7b57805160ff1916838001178555613aa9565b82800160010185558215613aa9579182015b82811115613aa8578251825591602001919060010190613a8d565b5b509050613ab69190613aba565b5090565b613adc91905b80821115613ad8576000816000905550600101613ac0565b5090565b905600a165627a7a72305820a7b084730d553087d7f408a38311d8d7c447e7792dd9bfc89599bd0387a068390029",
  "source": "pragma solidity ^0.4.20;\n\nimport \"plcr-revival/PLCRFactory.sol\";\nimport \"plcr-revival/PLCRVoting.sol\";\nimport \"./Parameterizer.sol\";\nimport \"tokens/eip20/EIP20.sol\";\n\ncontract ParameterizerFactory {\n\n    event NewParameterizer(address creator, address token, address plcr, Parameterizer parameterizer);\n\n    PLCRFactory public plcrFactory;\n    ProxyFactory public proxyFactory;\n    Parameterizer public canonizedParameterizer;\n\n    /// @dev constructor deploys a new canonical Parameterizer contract and a proxyFactory.\n    constructor(PLCRFactory _plcrFactory) public {\n        plcrFactory = _plcrFactory;\n        proxyFactory = plcrFactory.proxyFactory();\n        canonizedParameterizer = new Parameterizer();\n    }\n\n    /*\n    @dev deploys and initializes a new Parameterizer contract that consumes a token at an address\n    supplied by the user.\n    @param _token             an EIP20 token to be consumed by the new Parameterizer contract\n    @param _plcr              a PLCR voting contract to be consumed by the new Parameterizer contract\n    @param _parameters        array of canonical parameters\n    */\n    function newParameterizerBYOToken(\n        EIP20 _token,\n        uint[] _parameters\n    ) public returns (Parameterizer) {\n        PLCRVoting plcr = plcrFactory.newPLCRBYOToken(_token);\n        Parameterizer parameterizer = Parameterizer(proxyFactory.createProxy(canonizedParameterizer, \"\"));\n\n        parameterizer.init(\n            _token,\n            plcr,\n            _parameters\n        );\n        emit NewParameterizer(msg.sender, _token, plcr, parameterizer);\n        return parameterizer;\n    }\n\n    /*\n    @dev deploys and initializes new EIP20, PLCRVoting, and Parameterizer contracts\n    @param _supply            the total number of tokens to mint in the EIP20 contract\n    @param _name              the name of the new EIP20 token\n    @param _decimals          the decimal precision to be used in rendering balances in the EIP20 token\n    @param _symbol            the symbol of the new EIP20 token\n    @param _parameters        array of canonical parameters\n    */\n    function newParameterizerWithToken(\n        uint _supply,\n        string _name,\n        uint8 _decimals,\n        string _symbol,\n        uint[] _parameters\n    ) public returns (Parameterizer) {\n        // Creates a new EIP20 token & transfers the supply to creator (msg.sender)\n        // Deploys & initializes a new PLCRVoting contract\n        PLCRVoting plcr = plcrFactory.newPLCRWithToken(_supply, _name, _decimals, _symbol);\n        EIP20 token = EIP20(plcr.token());\n        token.transfer(msg.sender, _supply);\n\n        // Create & initialize a new Parameterizer contract\n        Parameterizer parameterizer = Parameterizer(proxyFactory.createProxy(canonizedParameterizer, \"\"));\n        parameterizer.init(\n            token,\n            plcr,\n            _parameters\n        );\n\n        emit NewParameterizer(msg.sender, token, plcr, parameterizer);\n        return parameterizer;\n    }\n}\n",
  "sourcePath": "/Users/sfronsdahl/myDev/serverless-hello-world2/contracts/ParameterizerFactory.sol",
  "compiler": {
    "name": "solc",
    "version": "0.4.24+commit.e67f0147.Emscripten.clang"
  },
  "schemaVersion": "2.0.1",
  "updatedAt": "2018-08-06T17:52:11.746Z"
}